:100000000C942A000C9447000C9447000C94470071
:100010000C9447000C9447000C94790C0C94470006
:100020000C9447000C9447000C94FC090C94CF09E5
:100030000C9447000C9447000C9447000C94470024
:100040000C9447000C9447000C9447000C94470014
:100050000C94470011241FBECFE5D8E0DEBFCDBF12
:1000600011E0A0E6B0E0ECE1FEE302C005900D92E5
:10007000A238B107D9F711E0A2E8B1E001C01D92A2
:10008000A838B107E1F70E94AA1E0C940C1F0C942B
:100090000000EF92FF920F931F937B018C0120E0F1
:1000A00030E040E05FE40E94F50388238CF0C80153
:1000B000B70120E030E040E05FE40E94C1010E940F
:1000C000B3049B01AC01205030404040504806C072
:1000D000C801B7010E94B3049B01AC01B901CA0178
:1000E0001F910F91FF90EF900895A0E0B0E0EBE733
:1000F000F0E00C94D51EDC012B01FA019C919230AA
:1001000008F439C1EB018881823008F433C194309E
:1001100069F4843009F02FC111969C91119789815F
:10012000981709F428C1A0E6B0E025C1843009F48D
:1001300021C18230A9F4923009F01DC19A01AD01AC
:1001400088E0EA010990AE01E90109929E0181501F
:10015000C1F7E201898111969C918923818308C1AD
:10016000923009F407C112962D903C901397EB0141
:100170008A819B811496AD90BD90CD90DC901797AD
:10018000EC80FD800E811F819101281B390BB90184
:1001900037FF04C066277727621B730B6032710537
:1001A0000CF061C0121613066CF537014801062EDB
:1001B00004C096948794779467940A94D2F721E0C8
:1001C00030E040E050E004C0220F331F441F551FB1
:1001D0006A95D2F721503040404050402E213F21B7
:1001E00040235123211531054105510521F021E01E
:1001F00030E040E050E079018A01E628F72808293C
:1002000019293CC0232BD1F1260E371E350146019A
:10021000062E04C096948794779467940A94D2F734
:1002200021E030E040E050E004C0220F331F441FC3
:10023000551F6A95D2F721503040404050402A2146
:100240003B214C215D21211531054105510521F04E
:1002500021E030E040E050E059016A01A628B728CB
:10026000C828D9280BC0821593052CF01C01AA249C
:10027000BB24650103C0EE24FF24870111969C91E5
:10028000D20111968C91981709F445C0992339F041
:10029000A80197012A193B094C095D0906C0A6016E
:1002A00095012E193F09400B510B57FD08C01182D3
:1002B0003382228224833583468357831DC081E0A5
:1002C00081833382228288279927DC01821B930B4A
:1002D000A40BB50B84839583A683B7830DC0220F2F
:1002E000331F441F551F24833583468357838281E0
:1002F000938101979383828324813581468157813D
:10030000DA01C9010197A109B1098F5F9F4FAF4F72
:10031000BF4328F30BC0918333822282EA0CFB1C7B
:100320000C1D1D1DE482F5820683178383E0808304
:10033000248135814681578157FF1AC0C901AA27F8
:1003400097FDA095BA2F81709070A070B0705695EF
:10035000479537952795822B932BA42BB52B848318
:100360009583A683B7838281938101969383828349
:10037000DF0101C0D201CD01CDB7DEB7E2E10C94BF
:10038000F11EA0E2B0E0E7ECF1E00C94E11E69831D
:100390007A838B839C832D833E834F835887E9E048
:1003A000EE2EF12CEC0EFD1ECE010196B7010E943F
:1003B000A4068E010F5E1F4FCE010596B8010E9464
:1003C000A4068A8991E089278A8BC701B801AE010A
:1003D000475E5F4F0E9475000E94CF05A096E6E041
:1003E0000C94FD1EA0E2B0E0E8EFF1E00C94E11EF9
:1003F00069837A838B839C832D833E834F835887C5
:10040000F9E0EF2EF12CEC0EFD1ECE010196B701A6
:100410000E94A4068E010F5E1F4FCE010596B80103
:100420000E94A406C701B801AE01475E5F4F0E945B
:1004300075000E94CF05A096E6E00C94FD1EA0E298
:10044000B0E0E5E2F2E00C94D51E69837A838B83F9
:100450009C832D833E834F835887CE010196BE0136
:10046000675F7F4F0E94A406CE010596BE016F5EB6
:100470007F4F0E94A4069985923088F08989823046
:10048000C8F0943019F4823051F404C0843029F457
:10049000923081F480E690E0C6C0923049F420E0CA
:1004A0009A858A89981321E02A87CE010996BBC0D4
:1004B000823049F420E09A858A89981321E02A8BBA
:1004C000CE014196B0C02D843E844F8458886D88FB
:1004D0007E888F88988CEE24FF248701AA24BB2471
:1004E000650140E050E060E070E0E0E0F0E0C10174
:1004F00081709070892BE9F0E60CF71C081D191D1E
:100500009A01AB012A0D3B1D4C1D5D1D80E090E062
:10051000A0E0B0E0E614F7040805190520F481E036
:1005200090E0A0E0B0E0BA01A901480F591F6A1F8E
:100530007B1FAA0CBB1CCC1CDD1C97FE08C081E0F5
:1005400090E0A0E0B0E0A82AB92ACA2ADB2A3196B6
:10055000E032F10549F0660C771C881C991C569412
:10056000479437942794C3CFFA85EA892B893C892D
:100570008B859C85280F391F2E5F3F4F17C0CA01FE
:1005800081709070892B61F016950795F794E79428
:1005900080E090E0A0E0B0E8E82AF92A0A2B1B2BC3
:1005A00076956795579547952F5F3F4F77FDE7CF36
:1005B0000CC0440F551F661F771F17FD4160EE0CDE
:1005C000FF1C001F111F21503040403090E05907A0
:1005D00090E0690790E4790760F32B8F3C8FDB0193
:1005E000CA018F779070A070B07080349105A1051A
:1005F000B10561F447FD0AC0E114F10401051105DC
:1006000029F0405C5F4F6F4F7F4F40781A8EFE1786
:1006100011F081E08A8F4D8F5E8F6F8F78A383E01A
:10062000898FCE0149960E94CF05A096E2E10C94F5
:10063000F11EA8E1B0E0EFE1F3E00C94DD1E698368
:100640007A838B839C832D833E834F835887B9E0C5
:10065000EB2EF12CEC0EFD1ECE010196B7010E948F
:10066000A4068E010F5E1F4FCE010596B8010E94B1
:10067000A4062985223008F47EC03989323010F46E
:10068000B8017CC08A859A8989278A87243011F02D
:10069000223031F4231709F06EC060E670E06EC0BE
:1006A000343039F41D861E861F86188A1C861B86E8
:1006B00004C0323021F484E08987B7015FC02B8504
:1006C0003C858B899C89281B390B3C872B87ED84C3
:1006D000FE840F851889AD88BE88CF88D88CEA142F
:1006E000FB040C051D0540F4EE0CFF1C001F111F40
:1006F000215030403C872B8720E030E040E050E044
:1007000080E090E0A0E0B0E460E070E0EA14FB0478
:100710000C051D0540F0282B392B4A2B5B2BEA18C2
:10072000FB080C091D09B695A79597958795EE0CC2
:10073000FF1C001F111F6F5F7F4F6F31710531F775
:10074000DA01C9018F779070A070B0708034910584
:10075000A105B10561F427FD0AC0E114F10401050A
:10076000110529F0205C3F4F4F4F5F4F20782D87B8
:100770003E874F87588BBE01675F7F4FCB010E943A
:10078000CF056896EAE00C94F91EA8E1B0E0EBEC26
:10079000F3E00C94E11E69837A838B839C832D8321
:1007A0003E834F83588789E0E82EF12CEC0EFD1E26
:1007B000CE010196B7010E94A4068E010F5E1F4F65
:1007C000CE010596B8010E94A4068985823040F0CA
:1007D0008989823028F0C701B8010E941C0701C036
:1007E0008FEF6896E6E00C94FD1EA8E1B0E0EBEF19
:1007F000F3E00C94E11E69837A838B839C832D83C1
:100800003E834F83588789E0E82EF12CEC0EFD1EC5
:10081000CE010196B7010E94A4068E010F5E1F4F04
:10082000CE010596B8010E94A4068985823040F069
:100830008989823028F0C701B8010E941C0701C0D5
:100840008FEF6896E6E00C94FD1EA8E1B0E0EBE2C5
:10085000F4E00C94E11E69837A838B839C832D835F
:100860003E834F83588789E0E82EF12CEC0EFD1E65
:10087000CE010196B7010E94A4068E010F5E1F4FA4
:10088000CE010596B8010E94A4068985823040F009
:100890008989823028F0C701B8010E941C0701C075
:1008A00081E06896E6E00C94FD1EA8E0B0E0EBE580
:1008B000F4E00C94DE1E9B01AC0183E08983DA0135
:1008C000C9018827B7FD83959927AA27BB27B82E8A
:1008D000211531054105510519F482E089833AC09B
:1008E0008823A9F0203080E0380780E0480780E8BE
:1008F000580729F460E070E080E09FEC30C0EE24FF
:10090000FF248701E21AF30A040B150B02C07901D8
:100910008A018EE1C82ED12CDC82CB82ED82FE8250
:100920000F831887C801B7010E9480050197181628
:10093000190684F4082E04C0EE0CFF1C001F111FC2
:100940000A94D2F7ED82FE820F831887C81AD90A5B
:10095000DC82CB82BA82CE0101960E94CF05289616
:10096000E9E00C94FA1EACE0B0E0E9EBF4E00C94A2
:10097000E51E69837A838B839C83CE010196BE0139
:100980006B5F7F4F0E94A4068D81823061F18230BF
:1009900050F1843021F48E81882351F12EC02F81B3
:1009A000388537FD20C06E812F3131051CF066235C
:1009B000F9F023C08EE190E0821B930B29853A85E4
:1009C0004B855C8504C056954795379527958A9544
:1009D000D2F76623B1F050954095309521953F4F61
:1009E0004F4F5F4F0EC020E030E040E050E009C0C4
:1009F0002FEF3FEF4FEF5FE704C020E030E040E033
:100A000050E8B901CA012C96E2E00C94011FA8E05D
:100A1000B0E0EDE0F5E00C94DD1E7B018C0161158A
:100A200071058105910519F482E0898360C083E036
:100A300089838EE1C82ED12CDC82CB82ED82FE82AE
:100A40000F831887C801B7010E948005FC01319708
:100A5000F7FF3BC0222733272E1B3F0B57016801AE
:100A6000022E04C0D694C794B794A7940A94D2F7E0
:100A700040E050E060E070E081E090E0A0E0B0E0B5
:100A800004C0880F991FAA1FBB1F2A95D2F7019790
:100A9000A109B1098E219F21A023B1230097A105AF
:100AA000B10521F041E050E060E070E04A295B29A7
:100AB0006C297D294D835E836F8378878EE190E07A
:100AC0008E1B9F0B9C838B8312C0309781F00E2E60
:100AD00004C0EE0CFF1C001F111F0A94D2F7ED8218
:100AE000FE820F831887CE1ADF0ADC82CB821A823D
:100AF000CE0101960E94CF052896EAE00C94F91EDB
:100B0000EF92FF920F931F937B018C0180E0E81618
:100B100080E0F80681E0080780E0180788F48FEF8E
:100B2000E816F1040105110531F028F088E090E0A5
:100B3000A0E0B0E017C080E090E0A0E0B0E012C01C
:100B400080E0E81680E0F80680E0080781E01807FA
:100B500028F088E190E0A0E0B0E004C080E190E0FF
:100B6000A0E0B0E020E230E040E050E0281B390B8C
:100B70004A0B5B0B04C016950795F794E7948A958A
:100B8000D2F7F701E859FF4F8081281B310941094D
:100B90005109C9011F910F91FF90EF900895DF92C5
:100BA000EF92FF920F931F93FC01E480F580068182
:100BB0001781D1808081823048F480E090E0A0E10C
:100BC000B0E0E82AF92A0A2B1B2BA5C0843009F4CF
:100BD0009FC0823021F4EE24FF24870105C0E11478
:100BE000F1040105110519F4E0E0F0E096C062811E
:100BF00073819FEF623879070CF05BC022E83FEF0A
:100C0000261B370B2A3131052CF020E030E040E084
:100C100050E02AC0B801A701022E04C0769567955E
:100C2000579547950A94D2F781E090E0A0E0B0E0B4
:100C300004C0880F991FAA1FBB1F2A95D2F70197DE
:100C4000A109B1098E219F21A023B1230097A105FD
:100C5000B10521F081E090E0A0E0B0E09A01AB01A5
:100C6000282B392B4A2B5B2BDA01C9018F77907027
:100C7000A070B07080349105A105B10539F427FF4B
:100C800009C0205C3F4F4F4F5F4F04C0215C3F4F76
:100C90004F4F5F4FE0E0F0E02030A0E03A07A0E0E7
:100CA0004A07A0E45A0710F0E1E0F0E079018A0178
:100CB00027C06038710564F5FB01E158FF4FD8018A
:100CC000C7018F779070A070B07080349105A10536
:100CD000B10539F4E7FE0DC080E490E0A0E0B0E09B
:100CE00004C08FE390E0A0E0B0E0E80EF91E0A1F18
:100CF0001B1F17FF05C016950795F794E7943196CB
:100D000087E016950795F794E7948A95D1F705C083
:100D1000EE24FF248701EFEFF0E06E2F6795662742
:100D20006795902F9F77D794DD24D7948E2F869543
:100D3000492F462B582F5D29B701CA011F910F91EA
:100D4000FF90EF90DF900895FC01DB01408151811D
:100D50002281622F6F7770E0221F2227221F93814A
:100D6000892F880F822B282F30E0991F9927991FF0
:100D700011969C93119721153105A9F5411551053F
:100D80006105710511F482E037C082E89FEF139688
:100D90009C938E9312979A01AB0167E0220F331F49
:100DA000441F551F6A95D1F783E08C930DC0220F25
:100DB000331F441F551F12968D919C9113970197D5
:100DC00013969C938E931297203080E0380780E032
:100DD000480780E4580758F314962D933D934D939C
:100DE0005C93179708952F3F310579F4411551050C
:100DF0006105710519F484E08C93089564FF03C0C4
:100E000081E08C9312C01C9210C02F573040139673
:100E10003C932E93129783E08C9387E0440F551FE9
:100E2000661F771F8A95D1F7706414964D935D9372
:100E30006D937C93179708951F93DC01FB019C91A0
:100E4000923008F447C08081823008F443C0943067
:100E500051F411961C91843099F58181682F70E0CE
:100E6000611B71093FC0843021F0923031F482302F
:100E7000B9F18181882389F12DC011961C911197B8
:100E80008230F1F081811817D9F412962D913C919E
:100E90001397828193818217930794F0281739075B
:100EA000BCF014968D919D910D90BC91A02D248144
:100EB000358146815781281739074A075B0718F49F
:100EC000112341F00AC082179307A407B50740F425
:100ED000112319F061E070E005C06FEF7FEF02C0F1
:100EE00060E070E0CB011F910895DF93CF930F92E4
:100EF000CDB7DEB78983A1E4B0E0E1E4F0E0808122
:100F000088608C93A1E4B0E0E1E4F0E08081887F28
:100F10008C93A1E4B0E0E1E4F0E090818981892B39
:100F20008C930F90CF91DF910895DF93CF93CDB73E
:100F3000DEB7A1E4B0E0E1E4F0E0808188618C9369
:100F4000E1E4F0E01082CF91DF910895DF93CF9339
:100F500000D00F92CDB7DEB783E390E09B838A8306
:100F600080E88983E9E2F0E08A818083E0E4F0E0D0
:100F70008A819B81892F99278083ABE2B0E0EBE2E5
:100F8000F0E080818D7F8C93ABE2B0E0EBE2F0E0AB
:100F900080818E7F8C93AAE2B0E0EAE2F0E080816B
:100FA00080618C93AAE2B0E0EAE2F0E080818860A0
:100FB0008C93AAE2B0E0EAE2F0E080818B7F8C9330
:100FC00089818460898389818260898389818F7B1B
:100FD000898389818F7E898389818F7D89838981B6
:100FE0008860898389818E7F8983E0E4F0E089814C
:100FF00080830F900F900F90CF91DF910895DF9332
:10100000CF930F92CDB7DEB78983EBE2F0E080811A
:10101000829586958770882F90E0817090700097F8
:10102000A1F3ECE2F0E0898180830F90CF91DF9112
:101030000895DF93CF93CDB7DEB7EBE2F0E0808188
:101040008823DCF7ECE2F0E08081CF91DF91089516
:10105000DF93CF93CDB7DEB7A3E5B0E0E3E5F0E0F3
:10106000808180648C93A3E5B0E0E3E5F0E08081CB
:1010700088608C93CF91DF910895DF93CF930F9287
:10108000CDB7DEB78983E2E5F0E0898180830F90F8
:10109000CF91DF910895DF93CF930F92CDB7DEB755
:1010A0008983A3E5B0E0E3E5F0E08081887F8C935D
:1010B000A3E5B0E0E3E5F0E090818981892B8C9392
:1010C0000F90CF91DF910895DF93CF930F92CDB71B
:1010D000DEB789838981813041F4A9E5B0E0E9E593
:1010E000F0E0808181608C9307C0A9E5B0E0E9E57C
:1010F000F0E080818E7F8C930F90CF91DF910895E7
:10110000DF93CF9300D000D0CDB7DEB789836A8359
:101110008A81282F30E03C832B838B819C81823015
:101120009105C9F02B813C812330310519F18B8168
:101130009C818130910569F5A3E5B0E0E3E5F0E03D
:10114000808180618C93A3E5B0E0E3E5F0E08081ED
:101150008F7D8C932CC0A3E5B0E0E3E5F0E08081C7
:1011600080628C93A3E5B0E0E3E5F0E080818F7EC0
:101170008C931DC0A3E5B0E0E3E5F0E080818061E1
:101180008C93A3E5B0E0E3E5F0E0808180628C938E
:101190000EC0A3E5B0E0E3E5F0E080818F7E8C93A4
:1011A000A3E5B0E0E3E5F0E080818F7D8C93ECE592
:1011B000F0E0898180830F900F900F900F90CF9176
:1011C000DF9108950F931F93DF93CF9300D0CDB796
:1011D000DEB789836A838A81813009F044C0A3E540
:1011E000B0E0E3E5F0E0808180618C93A3E5B0E0BE
:1011F000E3E5F0E0808180628C930CE510E089816A
:10120000882F90E0AA2797FDA095BA2FBC01CD01A9
:101210000E945504DC01CB01BC01CD0120E030E08F
:1012200048EC52E40E941903DC01CB01BC01CD0162
:1012300020E030E040E853EC0E941F02DC01CB01CB
:10124000BC01CD0120E030E040E853E40E94F2010F
:10125000DC01CB01BC01CD010E944900DC01CB01C6
:10126000F801808339C0A3E5B0E0E3E5F0E08081D8
:1012700080628C93A3E5B0E0E3E5F0E080818F7EAF
:101280008C930CE510E08981882F90E0AA2797FDC8
:10129000A095BA2FBC01CD010E945504DC01CB0101
:1012A000BC01CD0120E030E048EC52E40E9419037B
:1012B000DC01CB01BC01CD0120E030E040E853E48B
:1012C0000E941F02DC01CB01BC01CD010E9449003C
:1012D000DC01CB01F80180830F900F90CF91DF915B
:1012E0001F910F910895DF93CF930F92CDB7DEB783
:1012F0008983ECE5F0E0898180830F90CF91DF91C5
:101300000895DF93CF930F92CDB7DEB7898389819C
:10131000813041F4A9E5B0E0E9E5F0E08081826048
:101320008C9307C0A9E5B0E0E9E5F0E080818D7F0E
:101330008C930F90CF91DF910895DF93CF93CDB72A
:10134000DEB7A3E5B0E0E3E5F0E08081887F8C9331
:10135000CF91DF910895DF93CF9300D0CDB7DEB763
:101360009A83898389819A819093850180938401EE
:101370000F900F90CF91DF910895DF93CF9300D01E
:10138000CDB7DEB79A83898389819A81909383014F
:10139000809382010F900F90CF91DF9108951F925B
:1013A0000F920FB60F9211242F933F934F935F9399
:1013B0006F937F938F939F93AF93BF93EF93FF931D
:1013C000DF93CF93CDB7DEB7E0918401F091850133
:1013D0000995CF91DF91FF91EF91BF91AF919F91CF
:1013E0008F917F916F915F914F913F912F910F90CE
:1013F0000FBE0F901F9018951F920F920FB60F926D
:1014000011242F933F934F935F936F937F938F9309
:101410009F93AF93BF93EF93FF93DF93CF93CDB79A
:10142000DEB7E0918201F09183010995CF91DF91C0
:10143000FF91EF91BF91AF919F918F917F916F91AC
:101440005F914F913F912F910F900FBE0F901F9082
:101450001895DF93CF93CDB7DEB7ADE2B0E0EDE204
:10146000F0E080818F7D8C93ADE2B0E0EDE2F0E0C2
:1014700080818F7E8C93ADE2B0E0EDE2F0E0808180
:10148000877F8C93ADE2B0E0EDE2F0E08081846094
:101490008C93ADE2B0E0EDE2F0E0808180648C936B
:1014A000CF91DF910895DF93CF93CDB7DEB7EEE212
:1014B000F0E080818823DCF7EFE2F0E08081CF91DB
:1014C000DF910895DF93CF930F92CDB7DEB7898375
:1014D000EFE2F0E089818083EEE2F0E08081882312
:1014E000DCF70F90CF91DF910895DF93CF930F92A8
:1014F000CDB7DEB78983EFE2F0E0898180830F907A
:10150000CF91DF910895DF93CF930F92CDB7DEB7E0
:101510008983EFE2F0E089818083EEE2F0E0808170
:101520008823DCF7EFE2F0E080810F90CF91DF912C
:101530000895DF93CF93CDB7DEB72A970FB6F8940F
:10154000DEBF0FBECDBF89836A838981282F30E03B
:101550003A87298789859A858130910509F46DC07C
:1015600029853A852230310509F4C9C089859A85D3
:10157000009709F0E9C08A81282F30E038872F834F
:101580008F8198858130910521F12F813885223016
:1015900031052CF48F819885009761F046C02F812A
:1015A00038852230310521F18F819885833091056E
:1015B00071F13BC0A5E5B0E0E5E5F0E080818E7F0C
:1015C0008C93A5E5B0E0E5E5F0E0808182608C9346
:1015D0002CC0A5E5B0E0E5E5F0E0808181608C936A
:1015E000A5E5B0E0E5E5F0E0808182608C931DC068
:1015F000A5E5B0E0E5E5F0E080818D7F8C93A5E581
:10160000B0E0E5E5F0E0808181608C930EC0A5E557
:10161000B0E0E5E5F0E080818E7F8C93A5E5B0E059
:10162000E5E5F0E080818D7F8C93ABE5B0E0EBE504
:10163000F0E0808180648C9387C08A81282F30E01D
:101640003E832D838D819E818130910521F12D81F5
:101650003E81223031052CF48D819E81009761F00E
:1016600046C02D813E812230310521F18D819E8140
:101670008330910571F13BC0A5E5B0E0E5E5F0E010
:1016800080818B7F8C93A5E5B0E0E5E5F0E080817B
:1016900088608C932CC0A5E5B0E0E5E5F0E08081A2
:1016A00084608C93A5E5B0E0E5E5F0E0808188609A
:1016B0008C931DC0A5E5B0E0E5E5F0E08081877F73
:1016C0008C93A5E5B0E0E5E5F0E0808184608C9343
:1016D0000EC0A5E5B0E0E5E5F0E080818B7F8C935E
:1016E000A5E5B0E0E5E5F0E08081877F8C93ABE590
:1016F000B0E0EBE5F0E0808180688C9325C08A81C2
:10170000282F30E03C832B838B819C81009731F024
:101710002B813C812130310549F00FC0A4E5B0E0B8
:10172000E4E5F0E080818F7B8C9307C0A4E5B0E016
:10173000E4E5F0E0808180648C93ABE5B0E0EBE51C
:10174000F0E0808180628C932A960FB6F894DEBF19
:101750000FBECDBFCF91DF910895DF93CF9300D01F
:101760000F92CDB7DEB789838981282F30E03B8384
:101770002A838A819B818130910589F02A813B816E
:1017800022303105A1F08A819B810097B9F4ABE545
:10179000B0E0EBE5F0E080818F7B8C930FC0ABE590
:1017A000B0E0EBE5F0E080818F778C9307C0ABE58C
:1017B000B0E0EBE5F0E080818F7D8C930F900F908F
:1017C0000F90CF91DF910895DF93CF93CDB7DEB720
:1017D000AFE4B0E0EFE4F0E080818E7F8C93AFE483
:1017E000B0E0EFE4F0E080818D7F8C93AEE4B0E078
:1017F000EEE4F0E08081877F8C93AEE4B0E0EEE42D
:10180000F0E080818F7E8C93AEE4B0E0EEE4F0E017
:101810008081887F8C93AEE4B0E0EEE4F0E08081DC
:1018200082608C93A9E5B0E0E9E5F0E08081806218
:101830008C93AEE4B0E0EEE4F0E0808180648C93C1
:10184000CF91DF910895DF93CF9300D00F92CDB762
:10185000DEB789838981282F30E03B832A838A8100
:101860009B81009731F02A813B812130310549F07D
:101870000FC0AEE4B0E0EEE4F0E080818F7B8C93AB
:1018800007C0AEE4B0E0EEE4F0E0808180648C93C9
:101890000F900F900F90CF91DF910895DF93CF932A
:1018A00000D0CDB7DEB79A83898389819A819093DE
:1018B0008701809386010F900F90CF91DF9108955B
:1018C000DF93CF93CDB7DEB7E6E4F0E0808191817E
:1018D000CF91DF910895DF93CF93CDB7DEB7A9E520
:1018E000B0E0E9E5F0E080818F7D8C93CF91DF91CE
:1018F00008951F920F920FB60F9211242F933F93CA
:101900004F935F936F937F938F939F93AF93BF9307
:10191000EF93FF93DF93CF93CDB7DEB7E0918601CE
:10192000F09187010995CF91DF91FF91EF91BF91E0
:10193000AF919F918F917F916F915F914F913F9167
:101940002F910F900FBE0F901F901895DF93CF939C
:10195000CDB7DEB7A1E2B0E0E1E2F0E080818E7FBA
:101960008C93A1E2B0E0E1E2F0E080818D7F8C9386
:10197000E0E2F0E08CE08083A6E5B0E0E6E5F0E0B0
:10198000808180648C93A6E5B0E0E6E5F0E080819C
:1019900084608C93CF91DF910895DF93CF930F9262
:1019A000CDB7DEB78983E2E2F0E08981880F8083DA
:1019B000A6E5B0E0E6E5F0E0808180648C93A6E5E2
:1019C000B0E0E6E5F0E0808184608C930F90CF91E9
:1019D000DF910895DF93CF93CDB7DEB7E6E5F0E072
:1019E00084EA8083E6E5F0E080818823DCF7CF910C
:1019F000DF910895DF93CF93CDB7DEB7A6E5B0E0D2
:101A0000E6E5F0E0808180618C93A6E5B0E0E6E554
:101A1000F0E0808180688C93CF91DF910895DF930F
:101A2000CF930F92CDB7DEB78983E3E2F0E08981EF
:101A3000880F8083A3E2B0E0E3E2F0E080818E7F54
:101A40008C93A6E5B0E0E6E5F0E080818F7D8C9395
:101A5000A6E5B0E0E6E5F0E0808180688C93E6E5FD
:101A6000F0E080818823DCF70F90CF91DF9108951B
:101A7000DF93CF930F92CDB7DEB78983E3E2F0E037
:101A80008981880F8083A3E2B0E0E3E2F0E0808107
:101A900081608C93A6E5B0E0E6E5F0E080818F7D83
:101AA0008C93A6E5B0E0E6E5F0E0808180688C9359
:101AB000E6E5F0E080818823DCF70F90CF91DF919D
:101AC0000895DF93CF930F92CDB7DEB78983E3E21A
:101AD000F0E089818083A6E5B0E0E6E5F0E0808172
:101AE00080688C93E6E5F0E080818823DCF70F9036
:101AF000CF91DF910895DF93CF93CDB7DEB7A6E501
:101B0000B0E0E6E5F0E0808180688C93E6E5F0E007
:101B100080818823DCF7E3E2F0E08081CF91DF91E0
:101B20000895DF93CF93CDB7DEB7E1E2F0E0808197
:101B3000882F90E0887F907080369105B1F7A6E5F8
:101B4000B0E0E6E5F0E0808180688C93E6E5F0E0C7
:101B500080818823DCF7E3E2F0E08081CF91DF91A0
:101B60000895DF93CF9300D000D0CDB7DEB789833F
:101B70006A838981282F30E03C832B838B819C8171
:101B800081309105D1F02B813C81223031052CF43C
:101B90008B819C81009761F01EC02B813C8122309B
:101BA000310581F08B819C818330910581F013C0D8
:101BB000EAE3F0E08A8180830EC0E7E3F0E08A8107
:101BC000808309C0E4E3F0E08A81808304C0E1E31C
:101BD000F0E08A8180830F900F900F900F90CF914B
:101BE000DF910895DF93CF9300D000D0CDB7DEB75B
:101BF00089836A838981282F30E03C832B838B8102
:101C00009C8181309105D1F02B813C8122303105BE
:101C10002CF48B819C81009761F01EC02B813C814C
:101C20002230310581F08B819C818330910581F0D8
:101C300013C0EBE3F0E08A8180830EC0E8E3F0E0BC
:101C40008A81808309C0E5E3F0E08A81808304C053
:101C5000E2E3F0E08A8180830F900F900F900F9065
:101C6000CF91DF910895DF93CF93CDB7DEB727975C
:101C70000FB6F894DEBF0FBECDBF89836A834B8356
:101C80008B81813009F06FC08981282F30E03F833C
:101C90002E838E819F818130910549F12E813F8174
:101CA000223031052CF48E819F81009761F0CEC0E7
:101CB0002E813F812230310571F18E819F818330E9
:101CC0009105E9F1C3C0AAE3B0E0EAE3F0E0808166
:101CD000482F8A81282F30E081E090E0022E02C058
:101CE000880F991F0A94E2F7842B8C93AFC0A7E367
:101CF000B0E0E7E3F0E08081482F8A81282F30E0D0
:101D000081E090E0022E02C0880F991F0A94E2F74A
:101D1000842B8C939BC0A4E3B0E0E4E3F0E08081EB
:101D2000482F8A81282F30E081E090E0022E02C007
:101D3000880F991F0A94E2F7842B8C9387C0A1E344
:101D4000B0E0E1E3F0E08081482F8A81282F30E085
:101D500081E090E0022E02C0880F991F0A94E2F7FA
:101D6000842B8C9373C08981282F30E03D832C8392
:101D70008C819D818130910559F12C813D812230EA
:101D800031052CF48C819D81009769F05FC02C8116
:101D90003D812230310589F18C819D81833091050F
:101DA00009F440C053C0AAE3B0E0EAE3F0E0808168
:101DB000482F8A81282F30E081E090E0022E02C077
:101DC000880F991F0A94E2F7809584238C933EC074
:101DD000A7E3B0E0E7E3F0E08081482F8A81282F75
:101DE00030E081E090E0022E02C0880F991F0A9433
:101DF000E2F7809584238C9329C0A4E3B0E0E4E368
:101E0000F0E08081482F8A81282F30E081E090E047
:101E1000022E02C0880F991F0A94E2F7809584234E
:101E20008C9314C0A1E3B0E0E1E3F0E08081482F9F
:101E30008A81282F30E081E090E0022E02C0880FD6
:101E4000991F0A94E2F7809584238C9327960FB606
:101E5000F894DEBF0FBECDBFCF91DF910895DF9321
:101E6000CF93CDB7DEB727970FB6F894DEBF0FBE7E
:101E7000CDBF89836A834B838B81813009F06FC02A
:101E80008981282F30E03F832E838E819F8181308E
:101E9000910549F12E813F81223031052CF48E814C
:101EA0009F81009761F0CEC02E813F8122303105A5
:101EB00071F18E819F8183309105E9F1C3C0ABE35D
:101EC000B0E0EBE3F0E08081482F8A81282F30E0FA
:101ED00081E090E0022E02C0880F991F0A94E2F779
:101EE000842B8C93AFC0A8E3B0E0E8E3F0E08081FE
:101EF000482F8A81282F30E081E090E0022E02C036
:101F0000880F991F0A94E2F7842B8C939BC0A5E35A
:101F1000B0E0E5E3F0E08081482F8A81282F30E0AF
:101F200081E090E0022E02C0880F991F0A94E2F728
:101F3000842B8C9387C0A2E3B0E0E2E3F0E08081E1
:101F4000482F8A81282F30E081E090E0022E02C0E5
:101F5000880F991F0A94E2F7842B8C9373C08981B0
:101F6000282F30E03D832C838C819D818130910529
:101F700059F12C813D81223031052CF48C819D81D9
:101F8000009769F05FC02C813D812230310589F1D5
:101F90008C819D818330910509F440C053C0ABE32F
:101FA000B0E0EBE3F0E08081482F8A81282F30E019
:101FB00081E090E0022E02C0880F991F0A94E2F798
:101FC000809584238C933EC0A8E3B0E0E8E3F0E082
:101FD0008081482F8A81282F30E081E090E0022E16
:101FE00002C0880F991F0A94E2F7809584238C938E
:101FF00029C0A5E3B0E0E5E3F0E08081482F8A81C5
:10200000282F30E081E090E0022E02C0880F991F57
:102010000A94E2F7809584238C9314C0A2E3B0E085
:10202000E2E3F0E08081482F8A81282F30E081E0D0
:1020300090E0022E02C0880F991F0A94E2F7809563
:1020400084238C9327960FB6F894DEBF0FBECDBFC6
:10205000CF91DF910895DF93CF9300D000D00F92FE
:10206000CDB7DEB78A836B838A81282F30E03D832A
:102070002C834C815D814130510541F18C819D81E2
:102080008230910534F42C813D812115310561F0B8
:1020900052C04C815D814230510551F18C819D814E
:1020A00083309105B9F147C0E9E3F0E08081282F42
:1020B00030E08B81882F90E0A90102C055954795AB
:1020C0008A95E2F7CA018170898335C0E6E3F0E0C2
:1020D0008081282F30E08B81882F90E0A90102C0F9
:1020E000559547958A95E2F7CA018170898323C087
:1020F000E3E3F0E08081282F30E08B81882F90E0AF
:10210000A90102C0559547958A95E2F7CA018170E9
:10211000898311C0E0E3F0E08081282F30E08B81DB
:10212000882F90E0A90102C0559547958A95E2F75E
:10213000CA018170898389810F900F900F900F9051
:102140000F90CF91DF910895DF93CF930F92CDB78A
:10215000DEB78983A6E2B0E0E6E2F0E08081806845
:102160008C93A7E2B0E0E7E2F0E0808180648C939A
:10217000A7E2B0E0E7E2F0E080818F778C93A7E2FE
:10218000B0E0E7E2F0E080818F7D8C93A6E2B0E0E2
:10219000E6E2F0E08081887F8C93A6E2B0E0E6E2A0
:1021A000F0E090818981892B8C930F90CF91DF9102
:1021B0000895DF93CF930F92CDB7DEB78983A7E25F
:1021C000B0E0E7E2F0E08081807E8C93A7E2B0E0AF
:1021D000E7E2F0E090818981892B8C93A6E2B0E060
:1021E000E6E2F0E0808180648C93E6E2F0E08081BA
:1021F00082958F70882F90E0817090700097A9F37E
:10220000A6E2B0E0E6E2F0E080818F7E8C93E4E22B
:10221000F0E0808191810F90CF91DF910895DF935D
:10222000CF93CDB7DEB7A6E2B0E0E6E2F0E0808182
:102230008F778C93CF91DF910895DF93CF93CDB7B4
:10224000DEB783E060E041E00E94330E83E061E0AE
:1022500041E00E94330E83E062E041E00E94330ED1
:1022600083E063E041E00E94330ECF91DF91089557
:10227000DF93CF93CDB7DEB7E8970FB6F894DEBF04
:102280000FBECDBF83E060E041E00E942F0F83E0EE
:1022900061E040E00E942F0F83E062E040E00E9496
:1022A0002F0F83E063E040E00E942F0F80916801D0
:1022B00090916901CC01A0E0B0E0BC01CD010E9489
:1022C0000705DC01CB018DAB9EABAFABB8AF6DA901
:1022D0007EA98FA998AD20E030E04AEF54E40E9437
:1022E0001F02DC01CB0189AB9AABABABBCAB69A9DC
:1022F0007AA98BA99CA920E030E040E85FE30E9426
:10230000250488232CF481E090E098AB8FA73FC090
:1023100069A97AA98BA99CA920E03FEF4FE757E470
:102320000E94C50318164CF56DA97EA98FA998AD1A
:1023300020E030E040E251E40E941F02DC01CB01CA
:10234000BC01CD010E944900DC01CB0198AB8FA7F5
:102350000FC088EC90E09EA78DA78DA59EA5019744
:10236000F1F79EA78DA78FA598A9019798AB8FA786
:102370008FA598A9009769F714C069A97AA98BA9B4
:102380009CA90E944900DC01CB0198AB8FA78FA5C7
:1023900098A99CA78BA78BA59CA50197F1F79CA753
:1023A0008BA783E060E040E00E942F0F83E061E0B4
:1023B00041E00E942F0F83E062E040E00E942F0F77
:1023C00083E063E040E00E942F0F809168019091CC
:1023D0006901CC01A0E0B0E0BC01CD010E9407057D
:1023E000DC01CB018FA398A7A9A7BAA76FA178A5F5
:1023F00089A59AA520E030E04AEF54E40E941F022C
:10240000DC01CB018BA39CA3ADA3BEA36BA17CA1DC
:102410008DA19EA120E030E040E85FE30E9425040A
:1024200088232CF481E090E09AA389A33FC06BA19C
:102430007CA18DA19EA120E03FEF4FE757E40E94D1
:10244000C50318164CF56FA178A589A59AA520E0BB
:1024500030E040E251E40E941F02DC01CB01BC01EC
:10246000CD010E944900DC01CB019AA389A30FC0D2
:1024700088EC90E098A38F8F8F8D98A10197F1F74A
:1024800098A38F8F89A19AA101979AA389A389A163
:102490009AA1009769F714C06BA17CA18DA19EA1A0
:1024A0000E944900DC01CB019AA389A389A19AA1CA
:1024B0009E8F8D8F8D8D9E8D0197F1F79E8F8D8FC5
:1024C00083E060E040E00E942F0F83E061E040E0A5
:1024D0000E942F0F83E062E041E00E942F0F83E013
:1024E00063E040E00E942F0F8091680190916901A4
:1024F000CC01A0E0B0E0BC01CD010E940705DC01E9
:10250000CB01898F9A8FAB8FBC8F698D7A8D8B8D24
:102510009C8D20E030E04AEF54E40E941F02DC0171
:10252000CB018D8B9E8BAF8BB88F6D897E898F8908
:10253000988D20E030E040E85FE30E942504882386
:102540002CF481E090E09C8B8B8B3FC06D897E8961
:102550008F89988D20E03FEF4FE757E40E94C50335
:1025600018164CF5698D7A8D8B8D9C8D20E030E0AE
:1025700040E251E40E941F02DC01CB01BC01CD010D
:102580000E944900DC01CB019C8B8B8B0FC088EC37
:1025900090E09A8B898B89899A890197F1F79A8BB8
:1025A000898B8B899C8901979C8B8B8B8B899C89D0
:1025B000009769F714C06D897E898F89988D0E9474
:1025C0004900DC01CB019C8B8B8B8B899C89988B80
:1025D0008F878F8598890197F1F7988B8F8783E094
:1025E00060E040E00E942F0F83E061E040E00E9445
:1025F0002F0F83E062E040E00E942F0F83E063E052
:1026000041E00E942F0F8091680190916901CC01F7
:10261000A0E0B0E0BC01CD010E940705DC01CB01C8
:102620008B879C87AD87BE876B857C858D859E85D6
:1026300020E030E04AEF54E40E941F02DC01CB01AD
:102640008F839887A987BA876F81788589859A85CE
:1026500020E030E040E85FE30E94250488232CF46A
:1026600081E090E09E838D833FC06F81788589856E
:102670009A8520E03FEF4FE757E40E94C503181604
:102680004CF56B857C858D859E8520E030E040E2B1
:1026900051E40E941F02DC01CB01BC01CD010E946C
:1026A0004900DC01CB019E838D830FC088EC90E054
:1026B0009C838B838B819C810197F1F79C838B8317
:1026C0008D819E8101979E838D838D819E81009750
:1026D00069F714C06F81788589859A850E944900C1
:1026E000DC01CB019E838D838D819E819A838983BA
:1026F00089819A810197F1F79A838983E8960FB6C9
:10270000F894DEBF0FBECDBFCF91DF910895DF9368
:10271000CF93CDB7DEB7E8970FB6F894DEBF0FBE04
:10272000CDBF83E060E040E00E942F0F83E061E0D6
:1027300040E00E942F0F83E062E040E00E942F0FF4
:1027400083E063E041E00E942F0F80E090E0AAEF79
:10275000B3E48DAB9EABAFABB8AF6DA97EA98FA92B
:1027600098AD20E030E04AEF54E40E941F02DC0103
:10277000CB0189AB9AABABABBCAB69A97AA98BA9EE
:102780009CA920E030E040E85FE30E942504882314
:102790002CF481E090E098AB8FA73FC069A97AA99B
:1027A0008BA99CA920E03FEF4FE757E40E94C503A7
:1027B00018164CF56DA97EA98FA998AD20E030E0E0
:1027C00040E251E40E941F02DC01CB01BC01CD01BB
:1027D0000E944900DC01CB0198AB8FA70FC088ECA9
:1027E00090E09EA78DA78DA59EA50197F1F79EA7C6
:1027F0008DA78FA598A9019798AB8FA78FA598A9AA
:10280000009769F714C069A97AA98BA99CA90E94AD
:102810004900DC01CB0198AB8FA78FA598A99CA795
:102820008BA78BA59CA50197F1F79CA78BA783E0AD
:1028300060E040E00E942F0F83E061E040E00E94F2
:102840002F0F83E062E041E00E942F0F83E063E0FE
:1028500040E00E942F0F80E090E0AAEFB3E48FA346
:1028600098A7A9A7BAA76FA178A589A59AA520E0DE
:1028700030E04AEF54E40E941F02DC01CB018BA33D
:102880009CA3ADA3BEA36BA17CA18DA19EA120E0C2
:1028900030E040E85FE30E94250488232CF481E0C7
:1028A00090E09AA389A33FC06BA17CA18DA19EA1BA
:1028B00020E03FEF4FE757E40E94C50318164CF5A0
:1028C0006FA178A589A59AA520E030E040E251E407
:1028D0000E941F02DC01CB01BC01CD010E94490016
:1028E000DC01CB019AA389A30FC088EC90E098A3E8
:1028F0008F8F8F8D98A10197F1F798A38F8F89A162
:102900009AA101979AA389A389A19AA1009769F72F
:1029100014C06BA17CA18DA19EA10E944900DC0185
:10292000CB019AA389A389A19AA19E8F8D8F8D8DAA
:102930009E8D0197F1F79E8F8D8F83E060E040E0E0
:102940000E942F0F83E061E041E00E942F0F83E09F
:1029500062E040E00E942F0F83E063E040E00E94CD
:102960002F0F80E090E0AAEFB3E4898F9A8FAB8FAE
:10297000BC8F698D7A8D8B8D9C8D20E030E04AEF85
:1029800054E40E941F02DC01CB018D8B9E8BAF8B28
:10299000B88F6D897E898F89988D20E030E040E87E
:1029A0005FE30E94250488232CF481E090E09C8B57
:1029B0008B8B3FC06D897E898F89988D20E03FEF9A
:1029C0004FE757E40E94C50318164CF5698D7A8DC0
:1029D0008B8D9C8D20E030E040E251E40E941F028C
:1029E000DC01CB01BC01CD010E944900DC01CB011F
:1029F0009C8B8B8B0FC088EC90E09A8B898B89899C
:102A00009A890197F1F79A8B898B8B899C89019719
:102A10009C8B8B8B8B899C89009769F714C06D897F
:102A20007E898F89988D0E944900DC01CB019C8BA7
:102A30008B8B8B899C89988B8F878F859889019741
:102A4000F1F7988B8F8783E060E041E00E942F0FC1
:102A500083E061E040E00E942F0F83E062E040E00D
:102A60000E942F0F83E063E040E00E942F0F80E080
:102A700090E0AAEFB3E48B879C87AD87BE876B8518
:102A80007C858D859E8520E030E04AEF54E40E94ED
:102A90001F02DC01CB018F839887A987BA876F81DA
:102AA000788589859A8520E030E040E85FE30E94E0
:102AB000250488232CF481E090E09E838D833FC021
:102AC0006F81788589859A8520E03FEF4FE757E44D
:102AD0000E94C50318164CF56B857C858D859E85F7
:102AE00020E030E040E251E40E941F02DC01CB0113
:102AF000BC01CD010E944900DC01CB019E838D8386
:102B00000FC088EC90E09C838B838B819C81019724
:102B1000F1F79C838B838D819E8101979E838D83AA
:102B20008D819E81009769F714C06F8178858985B2
:102B30009A850E944900DC01CB019E838D838D81A3
:102B40009E819A83898389819A810197F1F79A837B
:102B50008983E8960FB6F894DEBF0FBECDBFCF9144
:102B6000DF9108950F931F93DF93CF93CDB7DEB717
:102B7000CC54D0400FB6F894DEBF0FBECDBF80E07E
:102B80006FEF0E94B10D81E060E041E00E94330EE2
:102B900081E061E041E00E94330E81E062E041E0CB
:102BA0000E94330EFE01E75BFF4F80E090E0ACE057
:102BB000B2E480839183A283B3838E010B5B1F4FAA
:102BC000FE01E75BFF4F608171818281938120E08C
:102BD00030E04AEF54E40E941F02DC01CB01F8010F
:102BE00080839183A283B383FE01EB5BFF4F6081FF
:102BF00071818281938120E030E040E85FE30E94B0
:102C00002504882344F4FE01ED5BFF4F81E090E052
:102C10009183808364C0FE01EB5BFF4F6081718113
:102C20008281938120E03FEF4FE757E40E94C50384
:102C300018160CF043C0FE01E75BFF4F6081718105
:102C40008281938120E030E040E251E40E941F0243
:102C5000DC01CB018E010D5B1F4FBC01CD010E9439
:102C60004900DC01CB01F801918380831FC0FE0184
:102C7000EF5BFF4F88EC90E091838083FE01EF5B78
:102C8000FF4F808191810197F1F7FE01EF5BFF4FCC
:102C900091838083DE01AD5BBF4FFE01ED5BFF4F93
:102CA00080819181019711969C938E93FE01ED5B3B
:102CB000FF4F808191810097D1F624C08E010D5B7A
:102CC0001F4FFE01EB5BFF4F608171818281938119
:102CD0000E944900DC01CB01F80191838083FE0151
:102CE000ED5BFF4F80819181FE01FF969183808390
:102CF000FE01FF96808191810197F1F7FE01FF9619
:102D00009183808388E30E94851880E090E0A8E4A6
:102D1000B2E48BAF9CAFADAFBEAF6BAD7CAD8DAD54
:102D20009EAD2BEA3AEA4AE250E40E941F02DC011F
:102D3000CB018FAB98AFA9AFBAAF6FA978AD89AD12
:102D40009AAD20E030E040E85FE30E94250488234C
:102D50001CF481E08EAB91C06FA978AD89AD9AADBE
:102D600020E030E04FE753E40E94C50318160CF052
:102D70007BC06BAD7CAD8DAD9EAD20E030E04AE711
:102D800054E40E941903DC01CB018AAB9BABACABD2
:102D9000BDAB6AA97BA98CA99DA920E030E04AEFD0
:102DA00054E40E941F02DC01CB018EA79FA7A8ABB1
:102DB000B9AB6EA57FA588A999A920E030E040E8CD
:102DC0005FE30E94250488232CF481E090E09DA716
:102DD0008CA73FC06EA57FA588A999A920E03FEFE9
:102DE0004FE757E40E94C50318164CF56AA97BA962
:102DF0008CA99DA920E030E040E251E40E941F022E
:102E0000DC01CB01BC01CD010E944900DC01CB01FA
:102E10009DA78CA70FC088EC90E09BA78AA78AA5E6
:102E20009BA50197F1F79BA78AA78CA59DA5019764
:102E30009DA78CA78CA59DA5009769F724C06EA5BA
:102E40007FA588A999A90E944900DC01CB019DA713
:102E50008CA78CA59DA599A788A788A599A501975A
:102E6000F1F799A788A70FC06FA978AD89AD9AAD82
:102E70000E944900DC01CB018EAB8EA98FA38FA1EC
:102E80008A95F1F78FA38FE00E94851880E090E08B
:102E9000A8E4B2E48BA39CA3ADA3BEA36BA17CA1C9
:102EA0008DA19EA12BEA3AEA4AE250E40E941F0259
:102EB000DC01CB018F8F98A3A9A3BAA36F8D78A152
:102EC00089A19AA120E030E040E85FE30E94250458
:102ED00088231CF481E08E8F91C06F8D78A189A129
:102EE0009AA120E030E04FE753E40E94C503181692
:102EF0000CF07BC06BA17CA18DA19EA120E030E0F5
:102F00004AE754E40E941903DC01CB018A8F9B8FAE
:102F1000AC8FBD8F6A8D7B8D8C8D9D8D20E030E0D8
:102F20004AEF54E40E941F02DC01CB018E8B9F8B81
:102F3000A88FB98F6E897F89888D998D20E030E0C8
:102F400040E85FE30E94250488232CF481E090E0B0
:102F50009D8B8C8B3FC06E897F89888D998D20E0F9
:102F60003FEF4FE757E40E94C50318164CF56A8DF2
:102F70007B8D8C8D9D8D20E030E040E251E40E94FD
:102F80001F02DC01CB01BC01CD010E944900DC0124
:102F9000CB019D8B8C8B0FC088EC90E09B8B8A8B38
:102FA0008A899B890197F1F79B8B8A8B8C899D89F4
:102FB00001979D8B8C8B8C899D89009769F724C024
:102FC0006E897F89888D998D0E944900DC01CB0133
:102FD0009D8B8C8B8C899D89998B888B888999890D
:102FE0000197F1F7998B888B0FC06F8D78A189A11C
:102FF0009AA10E944900DC01CB018E8F8E8D8F87B4
:103000008F858A95F1F78F8781E00E94851880E08F
:1030100090E0A0E0B0E48B879C87AD87BE876B858E
:103020007C858D859E8520E030E04AEF54E40E9447
:103030001F02DC01CB018F839887A987BA876F8134
:10304000788589859A8520E030E040E85FE30E943A
:10305000250488232CF481E090E09E838D833FC07B
:103060006F81788589859A8520E03FEF4FE757E4A7
:103070000E94C50318164CF56B857C858D859E8551
:1030800020E030E040E251E40E941F02DC01CB016D
:10309000BC01CD010E944900DC01CB019E838D83E0
:1030A0000FC088EC90E09C838B838B819C8101977F
:1030B000F1F79C838B838D819E8101979E838D8305
:1030C0008D819E81009769F714C06F81788589850D
:1030D0009A850E944900DC01CB019E838D838D81FE
:1030E0009E819A83898389819A810197F1F79A83D6
:1030F0008983C45BDF4F0FB6F894DEBF0FBECDBF30
:10310000CF91DF911F910F910895DF93CF93CDB7AA
:10311000DEB769970FB6F894DEBF0FBECDBF898FBB
:1031200081E060E040E00E942F0F81E061E040E03C
:103130000E942F0F80E0698D0E94F20D81E062E015
:1031400041E00E942F0F80E090E0A0E8BFE38D8B6C
:103150009E8BAF8BB88F6D897E898F89988D2BEA76
:103160003AEA4AE250E40E941F02DC01CB01898B5B
:103170009A8BAB8BBC8B69897A898B899C8920E07F
:1031800030E040E85FE30E94250488231CF481E0DE
:10319000888B91C069897A898B899C8920E030E08D
:1031A0004FE753E40E94C50318160CF07BC06D89ED
:1031B0007E898F89988D20E030E04AE754E40E94B0
:1031C0001903DC01CB018C879D87AE87BF876C8597
:1031D0007D858E859F8520E030E04AEF54E40E9493
:1031E0001F02DC01CB0188879987AA87BB87688586
:1031F00079858A859B8520E030E040E85FE30E9486
:10320000250488232CF481E090E09F838E833FC0C7
:10321000688579858A859B8520E03FEF4FE757E4F5
:103220000E94C50318164CF56C857D858E859F859B
:1032300020E030E040E251E40E941F02DC01CB01BB
:10324000BC01CD010E944900DC01CB019F838E832C
:103250000FC088EC90E09D838C838C819D810197C9
:10326000F1F79D838C838E819F8101979F838E834D
:103270008E819F81009769F724C0688579858A854A
:103280009B850E944900DC01CB019F838E838E8148
:103290009F819B838A838A819B810197F1F79B831E
:1032A0008A830FC069897A898B899C890E94490029
:1032B000DC01CB01888B8889898389818A95F1F724
:1032C000898381E062E040E00E942F0F69960FB68B
:1032D000F894DEBF0FBECDBFCF91DF910895DF938D
:1032E000CF93CDB7DEB769970FB6F894DEBF0FBEA8
:1032F000CDBF898F81E060E041E00E942F0F81E027
:1033000061E040E00E942F0F80E0698D0E94F20D85
:1033100081E062E041E00E942F0F80E090E0A0E8B1
:10332000BFE38D8B9E8BAF8BB88F6D897E898F8924
:10333000988D2BEA3AEA4AE250E40E941F02DC012F
:10334000CB01898B9A8BAB8BBC8B69897A898B89F2
:103350009C8920E030E040E85FE30E942504882358
:103360001CF481E0888B91C069897A898B899C895A
:1033700020E030E04FE753E40E94C50318160CF03C
:103380007BC06D897E898F89988D20E030E04AE787
:1033900054E40E941903DC01CB018C879D87AE8722
:1033A000BF876C857D858E859F8520E030E04AEF64
:1033B00054E40E941F02DC01CB0188879987AA8709
:1033C000BB87688579858A859B8520E030E040E869
:1033D0005FE30E94250488232CF481E090E09F8322
:1033E0008E833FC0688579858A859B8520E03FEF85
:1033F0004FE757E40E94C50318164CF56C857D8590
:103400008E859F8520E030E040E251E40E941F025B
:10341000DC01CB01BC01CD010E944900DC01CB01E4
:103420009F838E830FC088EC90E09D838C838C817A
:103430009D810197F1F79D838C838E819F810197F8
:103440009F838E838E819F81009769F724C0688552
:1034500079858A859B850E944900DC01CB019F8389
:103460008E838E819F819B838A838A819B81019732
:10347000F1F79B838A830FC069897A898B899C893C
:103480000E944900DC01CB01888B8889898389816E
:103490008A95F1F7898381E062E040E00E942F0F76
:1034A00069960FB6F894DEBF0FBECDBFCF91DF9106
:1034B0000895DF93CF9300D00F92CDB7DEB79B83F3
:1034C0008A8319820EC08981282F30E08A819B81EE
:1034D000FC01E20FF31F80810E946F1989818F5FC9
:1034E00089838981282F30E08A819B81FC01E20F4A
:1034F000F31F8081882339F70F900F900F90CF91A1
:10350000DF910895DF93CF9300D000D0CDB7DEB721
:1035100089836A838981282F30E03C832B838B81C8
:103520009C818130910531F02B813C812230310525
:1035300031F009C08A8180580E94851804C08A81B0
:1035400080540E9485180F900F900F900F90CF918C
:10355000DF9108950F931F93DF93CF93CDB7DEB71D
:1035600060970FB6F894DEBF0FBECDBF6D877E8724
:103570008F87988B89E089838D859E85AF85B889F3
:103580000097A105B10521F480E30E946F1944C0A2
:103590001C862EC08981082F10E08D859E85AF8501
:1035A000B8892AE030E040E050E0BC01CD010E9443
:1035B000B31EDC01CB01282F205DCE010296FC0159
:1035C000E00FF11F20838D859E85AF85B8892AE0A5
:1035D00030E040E050E0BC01CD010E94B31EDA01B2
:1035E000C9018D879E87AF87B88B89818150898378
:1035F0008D859E85AF85B8890097A105B10551F6E7
:103600008981882F90E09C012F5F3F4FCE01029669
:10361000820F931F0E94591A60960FB6F894DEBF6E
:103620000FBECDBFCF91DF911F910F910895DF9312
:10363000CF93CDB7DEB76C970FB6F894DEBF0FBE51
:10364000CDBF8A8F7C8F6B8F8A8D882F90E00896F4
:10365000880F991F880F991F880F991F0E9485183E
:1036600080E090E0A0E2B2E48D8B9E8BAF8BB88FB0
:103670006D897E898F89988D2BEA3AEA4AE250E477
:103680000E941F02DC01CB01898B9A8BAB8BBC8B18
:1036900069897A898B899C8920E030E040E85FE382
:1036A0000E94250488231CF481E0888B91C06989DD
:1036B0007A898B899C8920E030E04FE753E40E94AF
:1036C000C50318160CF07BC06D897E898F89988D93
:1036D00020E030E04AE754E40E941903DC01CB010A
:1036E0008C879D87AE87BF876C857D858E859F85FE
:1036F00020E030E04AEF54E40E941F02DC01CB01DD
:1037000088879987AA87BB87688579858A859B85FD
:1037100020E030E040E85FE30E94250488232CF499
:1037200081E090E09F838E833FC0688579858A859C
:103730009B8520E03FEF4FE757E40E94C503181632
:103740004CF56C857D858E859F8520E030E040E2DC
:1037500051E40E941F02DC01CB01BC01CD010E949B
:103760004900DC01CB019F838E830FC088EC90E081
:103770009D838C838C819D810197F1F79D838C8340
:103780008E819F8101979F838E838E819F81009779
:1037900069F724C0688579858A859B850E944900E0
:1037A000DC01CB019F838E838E819F819B838A83E3
:1037B0008A819B810197F1F79B838A830FC0698976
:1037C0007A898B899C890E944900DC01CB01888B16
:1037D0008889898389818A95F1F78983198E0EC03A
:1037E000898D282F30E08B8D9C8DFC01E20FF31F1B
:1037F00080810E946F19898D8F5F898F898D8830B4
:1038000078F36C960FB6F894DEBF0FBECDBFCF91A4
:10381000DF910895DF93CF930F92CDB7DEB7898301
:1038200089810E946F190F90CF91DF910895DF93E6
:10383000CF930F92CDB7DEB7198220C08981843033
:1038400068F48981882F90E0FC01E658FE4F908152
:1038500082E0692F41E00E94330E0DC08981882FDC
:1038600090E00497FC01E258FE4F908182E0692FBE
:1038700040E00E94330E89818F5F8983898188307F
:10388000E8F282E06FEF0E94F20D0F90CF91DF918E
:103890000895DF93CF93CDB7DEB763970FB6F89453
:1038A000DEBF0FBECDBF188A8FEF8F871B8ADDC0AA
:1038B0008B89882F90E0FC01E658FE4F908182E0D2
:1038C000692F40E00E942F0F1A8AB9C08A89882F79
:1038D00090E0FC01E258FE4F908182E0692F0E9447
:1038E0002B10898B8989882309F0A6C080E090E09D
:1038F000A8ECB1E48B879C87AD87BE876B857C8500
:103900008D859E8520E030E04AEF54E40E941F023E
:10391000DC01CB018F839887A987BA876F8178856F
:1039200089859A8520E030E040E85FE30E94250425
:1039300088232CF481E090E09E838D833FC06F81CB
:10394000788589859A8520E03FEF4FE757E40E940C
:10395000C50318164CF56B857C858D859E8520E00A
:1039600030E040E251E40E941F02DC01CB01BC01C7
:10397000CD010E944900DC01CB019E838D830FC0E5
:1039800088EC90E09C838B838B819C810197F1F77D
:103990009C838B838D819E8101979E838D838D81F6
:1039A0009E81009769F714C06F81788589859A8513
:1039B0000E944900DC01CB019E838D838D819E8115
:1039C0009A83898389819A810197F1F79A83898300
:1039D0008A89882F90E0FC01E258FE4F908182E0B6
:1039E000692F0E942B10898B8989882329F58B895F
:1039F000482F50E08A89282F30E0CA01880F991F8C
:103A0000880F991F820F931FFC01E659FE4F80819A
:103A10008F870CC08A89882F90E0FC01E258FE4F06
:103A2000908182E0692F0E942B10898B89898823DD
:103A300089F381E0888B07C08A898F5F8A8B8A89A6
:103A4000843008F443CF8B89882F90E0FC01E6583E
:103A5000FE4F908182E0692F41E00E942F0F8889FC
:103A6000813039F08B898F5F8B8B8B89843008F4A0
:103A70001FCF8F8563960FB6F894DEBF0FBECDBF04
:103A8000CF91DF910895DF93CF93CDB7DEB76197E4
:103A90000FB6F894DEBF0FBECDBF988B8F87698BB2
:103AA0000E94EA0C8F859889892F992780650E944A
:103AB0000F0D8F850E94610D89890E94610D0E9402
:103AC000FA0C80E090E0A0E2B1E48B879C87AD87A0
:103AD000BE876B857C858D859E8520E030E04AEF32
:103AE00054E40E941F02DC01CB018F839887A987D1
:103AF000BA876F81788589859A8520E030E040E833
:103B00005FE30E94250488232CF481E090E09E83EB
:103B10008D833FC06F81788589859A8520E03FEF4E
:103B20004FE757E40E94C50318164CF56B857C855A
:103B30008D859E8520E030E040E251E40E941F0226
:103B4000DC01CB01BC01CD010E944900DC01CB01AD
:103B50009E838D830FC088EC90E09C838B838B8148
:103B60009C810197F1F79C838B838D819E810197C6
:103B70009E838D838D819E81009769F714C06F812C
:103B8000788589859A850E944900DC01CB019E8356
:103B90008D838D819E819A83898389819A81019702
:103BA000F1F79A83898361960FB6F894DEBF0FBE52
:103BB000CDBFCF91DF910895DF93CF9300D00F92C7
:103BC000CDB7DEB79B838A830E94EA0C8A819B81F2
:103BD000892F992780650E940F0D8A810E94610DAF
:103BE0000E94EA0C8A819B81892F992780650E9417
:103BF000380D0E947B0D89830E94FA0C89810F90F9
:103C00000F900F90CF91DF910895DF93CF93CDB7B1
:103C1000DEB783E06FEF0E94B10DCF91DF91089581
:103C2000DF93CF9300D00F92CDB7DEB78983898120
:103C3000282F30E03B832A838A819B81853391053D
:103C400009F460C02A813B81263331050CF58A8155
:103C50009B818233910509F446C02A813B8123333D
:103C600031055CF48A819B818033910591F12A8131
:103C70003B812133310591F163C08A819B8183337C
:103C80009105B1F12A813B8124333105B1F158C04E
:103C90008A819B818833910509F443C02A813B8145
:103CA000293331055CF48A819B818633910579F152
:103CB0002A813B812733310579F142C08A819B817A
:103CC0008933910599F12A813B812334310599F19A
:103CD00037C083E06FE30E94F20D36C083E066E0F8
:103CE0000E94F20D31C083E06BE50E94F20D2CC002
:103CF00083E06FE40E94F20D27C083E066E60E9435
:103D0000F20D22C083E06DE60E94F20D1DC083E03B
:103D10006DE70E94F20D18C083E067E00E94F20D8B
:103D200013C083E06FE70E94F20D0EC083E06FE6E0
:103D30000E94F20D09C083E06FE30E94F20D04C0FF
:103D400083E069E40E94F20D0F900F900F90CF91E5
:103D5000DF910895DF93CF93CDB7DEB70E941D1199
:103D60000E943811FDCFA1E21A2EAA1BBB1BFD0138
:103D70000DC0AA1FBB1FEE1FFF1FA217B307E4074A
:103D8000F50720F0A21BB30BE40BF50B661F771FA2
:103D9000881F991F1A9469F7609570958095909582
:103DA0009B01AC01BD01CF0108952F923F924F922C
:103DB0005F926F927F928F929F92AF92BF92CF92BB
:103DC000DF92EF92FF920F931F93CF93DF93CDB7C4
:103DD000DEB7CA1BDB0B0FB6F894DEBF0FBECDBF3C
:103DE00009942A88398848885F846E847D848C840D
:103DF0009B84AA84B984C884DF80EE80FD800C8116
:103E00001B81AA81B981CE0FD11D0FB6F894DEBFF8
:0C3E10000FBECDBFED010895F894FFCF68
:103E1C000000000000000000000102020303030385
:103E2C00040404040404040405050505050505053E
:103E3C00050505050505050506060606060606061E
:103E4C000606060606060606060606060606060606
:103E5C0006060606060606060707070707070707EE
:103E6C0007070707070707070707070707070707D6
:103E7C0007070707070707070707070707070707C6
:103E8C0007070707070707070707070707070707B6
:103E9C00070707070707070708080808080808089E
:103EAC000808080808080808080808080808080886
:103EBC000808080808080808080808080808080876
:103ECC000808080808080808080808080808080866
:103EDC000808080808080808080808080808080856
:103EEC000808080808080808080808080808080846
:103EFC000808080808080808080808080808080836
:103F0C000808080808080808080808080808080825
:103F1C000808080808080808F4013738392F343520
:103F2C00362A3132332D43303D2B00010203040578
:023F3C00060776
:00000001FF
